:1000000014C02CC02BC02AC029C028C06CC026C078
:1000100025C024C023C022C021C020C01FC01EC0D4
:100020001DC01CC01BC01AC019C011241FBECFEDBB
:10003000CDBF10E0A0E6B0E0EAEAF4E002C005902F
:100040000D92AC36B107D9F710E0ACE6B0E001C0D4
:100050001D92AE36B107E1F795D025C2D1CF80E031
:1000600090E021E030E0A901082E02C0440F551FA6
:100070000A94E2F740936C004FE758E361E0415087
:1000800050406040E1F700C00000019686309105C5
:1000900051F7089581E0B79980E008959C0102C06E
:1000A000369527956A95E2F781E020FD80E0089576
:1000B000843618F4882389F001C083E66AE0D1D140
:1000C000A92FB0E0A05ABF4F9C9190936C00E82FED
:1000D000F0E0E05AFF4F808103C08FE380936C0013
:1000E00080936D0008951F920F920FB60F92112406
:1000F0008F939F93F89480EE82BF80916A0088234B
:10010000E9F080916B00813049F49598969A88B314
:10011000807888BB98B380916C000CC080916B0094
:100120008230F9F49698959A88B3807888BB98B312
:1001300080916D008095892B88BB13C088B380782F
:1001400088BB88B38F6B88BB80916B00813019F4BA
:100150009598969A06C080916B00823011F496981B
:10016000959A80916B00813011F482E001C081E0AA
:1001700080936B0078949F918F910F900FBE0F909A
:100180001F901895DF92EF92FF920F931F93DF93CA
:10019000CF930F92CDB7DEB78C988A9889988B98B9
:1001A00081B3806681BB87B38F6787BB889ABF980E
:1001B000949A929A919A939AC79A89B7826889BFBA
:1001C00088B7826888BF83B7856083BF80EE82BFAF
:1001D000789481E090E051D1182F8150823008F05E
:1001E00011E080E040E060E021E030E0AFE4B3EC1B
:1001F0001197F1F700C0000040936C0040936D0030
:10020000A901082E02C0440F551F0A94E2F7853059
:1002100010F48F5F01C080E050B35695569591E081
:1002200050FD90E06F5F683219F09923F9F202C037
:100230009923B9F1829BFECF8FE79AE1A6E0815026
:100240009040A040E1F700C0000088E7AFECB7E0C5
:100250001197F1F700C00000819B02C0839909C08B
:10026000113011F412E001C011E0819BFECF839B9D
:10027000FCCF82990CC0829BFECFE19904C081E043
:1002800090E0612F02D1E199FECFE9DE39C0809381
:100290006D00E12FF0E0E05AFF4F908190936C00E9
:1002A000D5CF86E080936D008FE380936C008FEF55
:1002B00099E6A8E181509040A040E1F700C000001D
:1002C00088E780936D00E12FF0E0E05AFF4F8081D6
:1002D00080936C008FEF99E6A8E181509040A04098
:1002E000E1F700C0000010926D0010926C008FEFDB
:1002F00094E3ACE081509040A040E1F700C00000E2
:10030000113019F49AE0E92E02C084E6E82E80E06C
:1003100090E0B3D0182F8150833608F012E3812F7C
:10032000C7DEFF2400E0DD2440E0AFECB7E011972A
:10033000F1F700C0000084993EC0F8944983AADE1A
:1003400049818823D9F7909A789480916A0088230C
:10035000A1F0812F90E06E2D70E071D020E030E0B0
:1003600008C0EFECF7E03197F1F700C000002F5F15
:100370003F4F28173907A8F39098849BFECF909899
:10038000E19906C080E090E0612F49837ED04981E9
:10039000E199FECF8FE79AE1A6E081509040A0401E
:1003A000E1F700C00000849BFECFAFE1BEE41197EF
:1003B000F1F700C000004A3F29F0BD2DB233C1F56E
:1003C000FF20C1F1829907C090916A0081E09111EC
:1003D00080E080936A00819912C080916A0088232E
:1003E00071F00A3011F00F5F02C0FF24F394212F47
:1003F00030E0233631051CF41F5F812F59DE8399CD
:1004000012C080916A00882371F00A3011F00F5FEA
:1004100002C0FF24F394212F30E0223031051CF07C
:100420001150812F45DE819B7ECF83997ACF7BCF80
:10043000FF2019F44F5FFF2478CFD39476CF552750
:10044000002480FF02C0060E571F660F771F61153C
:10045000710521F096958795009799F7952F802D36
:100460000895991B79E004C0991F961708F0961B10
:10047000881F7A95C9F780950895E199FECF1FBA34
:100480008EBBE09A99278DB30895262FE199FECF70
:100490001CBA1FBA8EBB2DBB0FB6F894E29AE19A34
:0A04A0000FBE01960895F894FFCFF7
:0C04AA003F065B4F666D7D077F6F010110
:00000001FF
